:020000040800F2
:10000000F8190020050100082B3D000815350008EF
:10001000293D0008110C0008DF5C0008000000000A
:100020000000000000000000000000009D410008EA
:100030008F0C000800000000414000089F410008AC
:100040001F0100081F0100081F0100081F01000810
:100050001F0100081F0100081F0100081F01000800
:100060001F0100081F0100081F010008590C0008AB
:100070001F0100081F0100081F0100081F010008E0
:100080001F0100081F0100081F0100081F010008D0
:10009000695C00081F0100081F0100081F0100081B
:1000A0001F010008214200081F0100081F0100086D
:1000B0001F0100081F0100081F0100081F010008A0
:1000C0001F0100081F0100081F0100081F01000890
:1000D0001F0100084D4500081F0100081F0100080E
:1000E0001F0100081F0100081F010008DFF810D0E1
:1000F00000F0AEFC00480047F1680008AFF3008054
:10010000F81900200648804706480047FEE7FEE74A
:10011000FEE7FEE7FEE7FEE7FEE7FEE7FEE7FEE7B7
:100120001F420008ED000008202A04DB203A21FAD3
:1001300002F00021704721FA02F3D040C2F1200200
:10014000914008431946704740EA01039B0703D0DA
:1001500009E008C9121F08C0042AFAD203E011F806
:10016000013B00F8013B521EF9D27047D2B201E0C8
:1001700000F8012B491EFBD270470022F6E710B5AC
:1001800013460A4604461946FFF7F0FF204610BD05
:10019000421C10F8011B0029FBD1801A7047F0B4F3
:1001A00080EA0102D40F4200B2EB410F02D20246B4
:1001B000084611464A0042D0C30DDDB2C1F3C75212
:1001C000AD1A202D35DAC1F3160141F4000204B155
:1001D0005242C5F1200602FA06F12A411044B3EB5F
:1001E000D05F23D0C4B1012DA0EBC35009DCF0BC1B
:1001F0004FF0004202EAC352DBB200F5000000F00B
:1002000032BB400000F1807000EBC350A0F1807061
:1002100040EAD170490009E0490841EAC071A0EB09
:10022000C35000F50000400800EBC350F0BC00F0E4
:1002300011BB6142012202EB4101001BF6E7F0BC59
:10024000704781F00041AAE780F00040A7E780EA0C
:10025000010210B502F00043400022D04A001FD036
:10026000010E01EB1261C0F35600C2F3560240F4D6
:10027000000042F40002A0FB022000047F391404B5
:1002800000D0401C50EA124001D44000491EC2B2C6
:100290000C0604EBD010401C4008802A02D003E07A
:1002A000002010BD20F00100002900DA00201843D2
:1002B00010BD30B480EA010202F0004530F0004287
:1002C00021F0004013D090B1C30DD40DC2F316013C
:1002D000C0F31600E41A41F4000140F400027D343A
:1002E000914201D3641C00E04900002C02DA30BCCA
:1002F000002070474FF400000023914201D3891A77
:10030000034340084FEA4101F7D151B1914202D174
:100310004FF0004105E002D24FF0010101E06FF023
:10032000010103EBC450284430BC00F093BA2DE91E
:10033000FE4F804681EA0300C00F0C46009021F07A
:10034000004123F00045B8EB0200A94105D2404628
:10035000214690461C460B46024623F000401043BF
:1003600047D0270DC7F30A00C3F30A510290401A81
:10037000019040286BDAC3F3130040F4801B00980F
:10038000924620B10023D2EB030A63EB0B0B0198DA
:100390005946C0F14002504600F03BFA06460D4671
:1003A00050465946019A00F043FA10EB08006141AB
:1003B000002487EA115284EAE7731A4340D0009A76
:1003C00062B3019A012A4FEA075215DC001B61EB68
:1003D00002014FF0004202EA0752CDE90042001C40
:1003E00041F5801132462B4600F07AFA03B0BDE8A1
:1003F000F08F40462146F9E7001B61EB0201001C2B
:1004000041F5801300185B412018A2F5001747EB57
:10041000030140EAD570B6196D4111E06D084FEA4D
:10042000360645EAC0754FEA0752001B61EB020130
:10043000001C41F5801149084FEA30000019514174
:1004400032462B4603B0BDE8F04F00F03ABA0098B0
:10045000012240000023D0EB020263EBE07300981E
:1004600021464FEAE074B8EB000061EB0401E9E7D4
:1004700083F000435BE781F0004158E72DE9FE4F30
:1004800081EA030404F0004421F0004100944FF09D
:10049000000B23F0004350EA01045ED052EA03044B
:1004A0005BD0C3F30A54C1F30A552C44A4F2F334CD
:1004B0000194A0FB0254C1F3130141F48011C3F372
:1004C000130343F4801301FB024400FB034E840A30
:1004D000970A44EA815447EA8357A4FB07680295C8
:1004E0008D0A05FB07854FEA932C04FB0C54270566
:1004F000029D4FEA065847EA1637B5EB08056EEB42
:10050000070C870E920E47EA811742EA8312A7FB77
:100510000201B6EB0B0164EB00042B0D43EA0C3334
:100520005E1844EB1C50DA465146E7FB0201C5F366
:1005300013044FEA0B3343EA14534FEA0432019C8D
:1005400043EA0603A4F10C040294009CCDE900B434
:1005500000F0C6F903B0BDE8F08F00200146F9E7CE
:100560002DE9F04D81EA030404F0004B21F0004531
:1005700014464FF0000A23F0004150EA050220D053
:1005800054EA01021DD0C5F30A570246C5F313030E
:10059000C1F31300C1F30A5640F4801543F48013ED
:1005A000A7EB0608101BD64608F2FD3873EB0500D2
:1005B00002D308F1010801E092185B41B8F1000F85
:1005C00003DA00200146BDE8F08D00204FF48011D1
:1005D000064684460EE0171B73EB050705D3121B76
:1005E00063EB050306434CEA010C49084FEA30006F
:1005F00092185B4150EA0107EDD152EA030012D094
:1006000082EA040083EA0501084305D0101BAB41D0
:1006100006D20122002306E000224FF0004302E050
:100620006FF0010253101AEB06004CEB085110EB6F
:100630000A0041EB0B01BDE8F04D00F042B970B586
:1006400021F0004303430CD0C1F30A550024D5EB3D
:10065000040564EB0403D617AD1AB34102DB002096
:10066000014670BD201841EB025170BD9623002257
:10067000114600F0F8B80EB5C10F80EAE0700844EA
:10068000CA07002140F233438DE80E000A460B46AC
:1006900000F026F903B000BD0EB540F233410291DF
:1006A0000021CDE900110A460B4600F019F903B00C
:1006B00000BD00F0004230F000400AD0C10D01F54D
:1006C0006071C0F3160042EA0151C20840071143AD
:1006D000704700200146704730B5041E71F10004D8
:1006E00004DB4FF00044404264EB0101141E73F13F
:1006F000000405DB1C464FF00043524263EB040349
:100700008B4208BF824230BD30B5041E71F1000437
:1007100004DB4FF00044404264EB0101141E73F10E
:10072000000405DB1C464FF00043524263EB040318
:10073000994208BF904230BD01F0004330B421F02F
:10074000004150EA010206D00A0DA2F56072C1F321
:100750001301002A02DC30BC00207047440F44EA39
:10076000C104C100E01830BC00EBC25000F072B808
:10077000002801DBC0F10040002901DBC1F100418C
:100780008842704730B50B460146002020220124E4
:1007900009E021FA02F59D4205D303FA02F5491B4F
:1007A00004FA02F52844151EA2F10102F1DC30BD65
:1007B0002DE9F05F0546002092469B468846064696
:1007C000814640241BE02846414647462246FFF723
:1007D000ABFC53465A46C01A914110D311461846F5
:1007E000224600F016F82D1A67EB01084F46224604
:1007F0000120002100F00DF817EB00094E41201EEA
:10080000A4F10104DFDC484631462A464346BDE8F0
:10081000F09F202A04DB203A00FA02F10020704702
:100820009140C2F1200320FA03F31943904070472E
:10083000202A06DBCB17203A41FA02F043EAE073A4
:1008400006E041FA02F3D040C2F120029140084391
:10085000194670470029A8BF7047401C490008BFCF
:1008600020F00100704710B4B0FA80FC00FA0CF0E0
:1008700050EA010404BF10BC704749B1CCF1200418
:1008800021FA04F411FA0CF118BF012121430843A5
:10089000A3EB0C01CB1D4FEA00614FEA102042BFD1
:1008A000002010BC704700EBC35010440029A4BFC7
:1008B00010BC7047401C490008BF20F0010010BC6C
:1008C000704710B5141E73F1000408DA401C41F1A2
:1008D000000192185B411A4301D120F0010010BDC4
:1008E0002DE9F04D92469B4611B1B1FA81F202E03A
:1008F000B0FA80F220329046FFF78BFF04460F4695
:1009000040EA0A0041EA0B0153465A46084313D015
:10091000114653EA010019D0C8F140025046FFF7D2
:1009200003FC05460E46504659464246FFF771FF06
:10093000084305D0012004E020463946BDE8F08D8B
:100940000020054346EAE0762C4337430A986305C6
:10095000E40AA0EB08000022FD0A44EA47540A30EA
:1009600002D500200146E9E7010510196941DDE9DA
:10097000084500196941BDE8F04DA2E72DE9F04DA9
:1009800000231A461B1A8A4103DB00200146BDE8FA
:10099000F08DC1F30A52C1F3130141F480154FF0F9
:1009A000000BD10702D100186D41521E00270446EA
:1009B00040F2FF11384601EB620A3E46804602468D
:1009C00000204FF48011FFF7AFFBC2197141BB1833
:1009D00046EB0100B4EB030C75EB000C04D3E41AF6
:1009E00065EB000517460E46241908F101006D411C
:1009F00080463428E3DDF91946EB0600091BA841BF
:100A000003D24FF0FF32134601E0002213461BEBE6
:100A1000070046EB0A51BDE8F04DFFF752BFC1F3A6
:100A20000A52C1F3130140F2FF3341F480119A429C
:100A300002DA00200146704740F233439A42A2F2A4
:100A4000334202DC5242FFF76FBBFFF7E2BE000009
:100A5000064C074D06E0E06840F0010394E807000B
:100A600098471034AC42F6D3FFF744FB486E0008B9
:100A7000686E000870B58C1810F8015B15F007035C
:100A800001D110F8013B2A1106D110F8012B03E027
:100A900010F8016B01F8016B5B1EF9D12B0705D42F
:100AA0000023521E0DD401F8013BFAE710F8013B78
:100AB000CB1A921C03E013F8015B01F8015B521E94
:100AC000F9D5A142D8D3002070BD000070B504460E
:100AD00000688168C943C90717D1816821F0010105
:100AE000816000F045FD05460AE000BF00F040FDD2
:100AF000401B022804D920688068C043C00706D084
:100B000020688068C043C007F0D0002070BDA06A94
:100B100040F01000A062E06A40F00100E0620120B5
:100B200070BD10B50146406A826A12F0500F05D0C0
:100B3000006A026BBDE8104008461047816A41F424
:100B40000071816201688968C1F3424107290CD1B3
:100B5000017B51B9816A21F480718162816AC90483
:100B600003D4816A41F00101816200F011F910BDE6
:100B700010B5406A816A41F040018162C16A41F06A
:100B80000401C16200F006F910BD10B5406A00F022
:100B900000F910BDF8B5002604460096006881688B
:100BA000C943C9072DD0816841F001018160164811
:100BB00016490068B0FBF1F000E0401E00900028EC
:100BC000FBD100F0D5FC054616E000BF00F0D0FCDC
:100BD000401B022810D920688068C043C0070BD092
:100BE000A06A40F01000A062E06A40F00100E062FC
:100BF00084F824600120F8BD20688068C043C007E5
:100C0000E4D10020F8BD00005C01002040420F004C
:100C1000FEE70020704700207047000010B500225A
:100C20000449054803F08AFD0449034803F080FDA8
:100C3000002010BD000D00205404002018090020E1
:100C400010B50146034803F073FD024803F054FD5C
:100C5000002010BD54040020014800F069BA0000D3
:100C60001004002030B590F840500124AC40C56B12
:100C70006C60046863604368102B036803D099605C
:100C80000068C26030BD9A600068C16030BD7047C6
:100C900072B6FEE7F8B50024009490F824202546AB
:100CA000012A12D0012280F824204A681F23072A33
:100CB0000DD20668776B521E02EB820293409F436F
:100CC0000B6893401F43776319E00220F8BD066864
:100CD0000D2A0AD2376BD21F02EB820293409F4348
:100CE0000B6893401F43376309E0F76A0D3A02EB44
:100CF000820293409F430B6893401F43F7620A6848
:100D0000072306680A2A0AD3F7680A3A02EB420266
:100D100093409F438B6893401F43F76008E0376917
:100D200002EB420293409F438B6893401F4337611D
:100D30000A68102A01D0112A20D1124B02689A4267
:100D400017D193681B0219D4936843F4000393608E
:100D50000968102912D10C490C4A0968B1FBF2F15B
:100D600001EB8101490000E0491E00910029FBD1FF
:100D700004E0816A41F020018162012480F824505E
:100D80002046F8BD002401405C01002040420F00D5
:100D900070477047704700002DE9F0414FF00007A1
:100DA00004003D467ED0A06A002628B9E66284F899
:100DB0002460204600F07EF82046FFF787FEA16AF7
:100DC000C90600D420B1A06A40F01000A06269E01A
:100DD000A16A21F4885141F00201A1626268E169CF
:100DE000237B0A4347EA43010A43A1684FF4807713
:100DF000B94209D0012907D05FF0000194F814C06E
:100E0000BCF1010F02D00AE03946F7E7F3B1A36A5B
:100E100043F02003A362E36A43F00103E362236823
:100E2000D3F804C02CF4694C4CEA010CC3F804C09C
:100E300021688B68DFF870C003EA0C0313438B60F2
:100E4000A168B9420BD0012909D00CE0DFF85CC0E1
:100E5000A3690CEB43330B4343F40061DFE7218AC2
:100E60000D05A5F580152168CB6A23F470032B438B
:100E7000CB62216889680E4B1940914208D1E66225
:100E8000A16A21F0020141F00101A162BDE8F081F7
:100E9000A06A20F0020040F01000A062E06A40F07A
:100EA0000100E0620120F1E7FDF7E1FF00E0FFFF54
:100EB000FE0E1FFF70B586B000260546009601960F
:100EC0000296039600681A4988422ED1194988690A
:100ED00040F400708861886900F4007004908869AB
:100EE00040F0080088618869694600F008000490B5
:100EF000032000900190104800F03CFA104C0F487D
:100F0000C4E900068020C4E90260800020618000FE
:100F100060612020A061C001E061204600F0B2F9CC
:100F200008B1FFF7B5FE2C62656206B070BD000027
:100F30000024014000100240000C01400800024063
:100F4000100400202DE9F047894604463B4900681B
:100F50003B4F0E1D9046884201D0B84207D1306801
:100F600010F4702F03D001252846BDE8F08794F8CF
:100F7000240001280CD0012084F824002046FFF72B
:100F800009FE05004FF0000004D084F82400EBE7D0
:100F90000220EAE7A16A40F60162914341F48071C0
:100FA000A1622168B94218D1326812F4702F14D0AE
:100FB000A16A41F48011A1623168490505D5A16A91
:100FC00021F4005141F48051A162A16AC9040AD5FB
:100FD000E16A21F00601E16206E0A26A22F48012D1
:100FE000A2624968E9E7E06284F82400216A1548B2
:100FF0008862216A1448C862216A1448086321681B
:101000006FF0020008602068816841F4807181609F
:10101000216843464A464C31206A00F061F9206855
:101020008168C1F342410729816803D041F48011EE
:10103000816099E741F4A001FAE700000024014033
:1010400000280140230B00088B0B0008710B0008DF
:1010500010B590F821100022022905D004218163E7
:1010600080F82020012010BD01680B6823F00E03DA
:101070000B6001680B6823F001030B6090F84030AF
:10108000C46B012101FA03F3636080F8211080F83A
:101090002020104610BD000010B590F8211000244B
:1010A000022903D00421816301243DE001680A681C
:1010B00022F00E020A6001680A6822F001020A604A
:1010C0001A4A0168914201D1012121E0174A1432E4
:1010D000914201D110211BE0144A2832914201D1E2
:1010E000891515E0114A3C32914201D189140FE073
:1010F0000E4A5032914202D14FF4803108E00B4A3F
:101100006432914202D14FF4801101E04FF08071BE
:10111000064A083A5160012180F82110002180F828
:101120002010416B01B18847204610BD08000240E5
:101130002DE9F05FC16B0C6801680B68D0F840C006
:10114000042202FA0CF2494DDFF824A1494E4A4F1D
:10115000DFF828B1DFF828E122422CD05A072AD53F
:101160000A68920603D40A6822F004020A60016841
:10117000A94201D1042219E0514501D1402215E0D4
:10118000B14202D14FF4806210E0B94202D14FF473
:1011900080420BE0594502D14FF4802206E07145B0
:1011A00002D14FF4800201E04FF080622F490839EC
:1011B0004A60C16A3BE04FF0020808FA0CF818EAEE
:1011C000040F4FF000094FF0010235D05FEA837839
:1011D00032D50B689B0605D40B6823F00A030B601D
:1011E00080F821200168A94201D1022219E051456D
:1011F00001D1202215E0B14202D14FF4007210E07B
:10120000B94202D14FF400520BE0594502D14FF4DC
:10121000003206E0714502D14FF4001201E04FF0B8
:101220000072124908394A6080F82090816A0029CA
:101230001AD0BDE8F05F0847082505FA0CF52542ED
:1012400012D01B0710D50B6823F00E030B6090F82B
:101250004010C36B02FA01F15960826380F82120CB
:1012600080F82090016BE2E7BDE8F09F08000240A3
:101270001C0002403000024044000240580002407E
:101280006C00024030B528B308C813491422194431
:10129000B1FBF2F18900C1631049816302214177FA
:1012A0001A6843F6F0718A43D0E900142143D0E96B
:1012B00002452C4321430469214344692143846945
:1012C00021431143196000214163012242770177D4
:1012D000084630BD012030BDF8FFFDBF00000240D0
:1012E00070B5044690F82000002501280CD001209C
:1012F00084F8200094F821600020012E06D084F8A4
:1013000020000225284670BD022070BD022684F808
:101310002160A0632068066826F00106066020466A
:10132000FFF7A0FCE06A00282068016802D041F0C5
:101330000E0106E021F0040101602068016841F01F
:101340000A0101602068016841F001010160D9E7EC
:1013500070B5044600F00CF90546601C02D0044844
:101360000078044400F004F9401BA042FAD370BD99
:10137000500100202DE9F84FDFF8B891002409F161
:10138000040A0AF1040B23460F270BF1040EC9E0EF
:101390000125A5402A40AA427DD1674ED1F804C05C
:1013A000ACEB0608B44532D014DCBCF1030F3AD0E4
:1013B00009DCBCF1000F2AD0BCF1010F1CD0BCF13C
:1013C000020F31D11DE0BCF1110F17D0BCF1120F8B
:1013D0002AD119E0B8F5881F19D006DCB8F5803F8E
:1013E00015D0B8F5801F1FD111E0B8F5001F0ED041
:1013F000B8F5041F18D10AE0CB6815E0CB681B1DB7
:1014000012E0CB6808330FE0CB680C330CE08B683C
:101410002BB1012B4FF0080303D0456104E00423F6
:1014200002E0056100E00023FF2A01D8064601E042
:1014300000F104064FEA840501D9A5F12005D6F88C
:10144000008007FA05FC28EA0C0803FA05F548EACB
:101450000508C6F800804D68ED0062D5374DAE69CD
:1014600046F00106AE61AD6924F0030605F0010502
:101470000095334D06EB050CDCF80850A607360F37
:1014800007FA06F825EA0805DFF8B880404503D1D9
:101490004FF0000817E044E0DFF8AC80404502D18F
:1014A0004FF001080FE0DFF8A480404502D14FF073
:1014B000020808E0DFF89880404502D14FF00308A9
:1014C00001E04FF0040808FA06F848EA0508CCF8ED
:1014D00008804D68D9F80060ED034D4601D51643EC
:1014E00000E096432E604D68DAF80060AD03554683
:1014F00001D5164300E096432E604D68DBF800608E
:10150000ED025D4601D5164300E096432E604D681E
:10151000DEF80060AD02754601D5164300E0964343
:101520002E60641C0D682A46E5407FF431AFBDE8AB
:10153000F88F00000004014000001110001002406C
:101540000000014000080140000C01400010014073
:1015500000140140C26821EA02030A4043EA024142
:10156000016170470AB1016170470904FBE700009F
:1015700001488068704700005001002070B50400E9
:1015800025D094F83D00002520B984F83C50204631
:1015900000F078FA242084F83D002068016821F0EA
:1015A000010101602068016841F400410160206888
:1015B000016821F40041016001F004F94D4A6168BD
:1015C000914201D84C4900E04C49884201D20120A7
:1015D00070BD4B492368B0FBF1F15E6826F03F0611
:1015E0000E435E606368934206D94FF49673594385
:1015F0004FF47A73B1FBF3F12368491C1E6A26F09D
:101600003F06314319626168914210D84900401E7B
:10161000B0FBF1F2521CC2F30B02042A01D20420E7
:1016200022E0B0FBF1F0401CC0F30B001CE0A2680C
:10163000F2B301EBC10303EB0116431EB3FBF6F358
:101640005B1C43F480431B0549D092B301EBC102FC
:1016500002EB0111401EB0FBF1F0401CC0F30B0087
:1016600040F4804040F400402168CA694CF6FF73A2
:101670009A431043C861D4E9071001432068026807
:1016800022F0C00211430160D4E903010143206844
:10169000826848F2FF339A4311438160D4E905011F
:1016A00008432168CA6822F0FF021043C86001E0C5
:1016B0000EE016E02068016841F001010160256438
:1016C000202084F83D00256384F83E50002070BD42
:1016D00001EB4106431EB3FBF6F35B1CB3E70120AD
:1016E000C2E701EB4101401EB0FBF1F0401CC0F32A
:1016F0000B00B7E7A086010080841E0000093D00B2
:1017000040420F002DE9FF4F83B00025DDE910793D
:101710009A4693460446DDF848800095FFF728FF77
:10172000064694F83D0020287CD1192301228549E2
:101730002046009601F0FEFF0028F5D194F83C0009
:1017400001286FD0012084F83C0020680168C90797
:1017500003D1016841F0010101602068016821F4B2
:1017600000610160222084F83D00402084F83E00A2
:1017700025646762A4F82A90608D20857248E06233
:10178000CDE9008653465A462046049901F0DAFE18
:1017900000287DD1208DDFF8B491202768B1012881
:1017A00014D00228206801681ED041F480610160D5
:1017B0002068416980690090B6E0206841698169CC
:1017C0000091016841F400710160ADE0206801689A
:1017D00021F48061016072B62068416981690091DD
:1017E000016841F400710AE041F40061016072B6E1
:1017F0002068416981690091016821F4806101607C
:1018000062B691E0032868D801280CD0022843462C
:101810004FF000024946204600960FD001F08AFFA3
:10182000B0BB10E08BE032464146204602F001F8A2
:1018300070BB20680069616A08706CE001F07AFF93
:1018400030BB72B634E02068016821F48061016029
:1018500072B620680069616A0870606A401C606244
:10186000208D401E2085608D401E6085384846F2E0
:10187000A8110068B0FBF1F0C0EBC00000EB8000E5
:101880000090401E009008D020684069C04300E0EE
:1018900029E040070CD50098F3E744F8305F677300
:1018A000A573206940F02000206162B625731AE01C
:1018B0002068016841F40071016020680069616A74
:1018C0000870606A401C6062218D491E2185618D0F
:1018D000491E618562B621681BE0324641462046BA
:1018E00001F0A7FF18B1012007B0BDE8F08F206814
:1018F0000069616A0870606A401C6062218D491E3F
:101900002185618D491E618521684A69D24352074C
:101910000AD409690170606A401C6062208D401E13
:101920002085608D401E6085208D00287FF46AAF81
:1019300084F83D7084F83E5084F83C50D4E702208F
:10194000D2E70000020010000000FFFF04000100C9
:101950005C0100202DE9FF4F83B09A46DDE9119725
:1019600093460446DDF84080FFF702FE054694F8F2
:101970003D0020287FD119230122404920460095AF
:1019800001F0D8FE002876D194F83C00012872D0EE
:10199000012084F83C0020680168C90703D1016870
:1019A00041F0010101602068016821F400610160DB
:1019B000212084F83D00402084F83E000026266463
:1019C000C4F82480A4F82A90608D20852C48E06219
:1019D000CDE9007553465A462046049901F030FE81
:1019E00070B930E02A463946204601F055FF58B11B
:1019F000206C042804D12068016841F40071016062
:101A0000012007B0BDE8F08F606A216800780861A6
:101A1000606A401C6062218D491E89B22185628DF9
:101A2000521E628522685369DB435B070BD469B1A0
:101A300000781061606A401C6062208D401E208525
:101A4000608D401E6085208D0028CBD12A46394606
:101A5000204601F049FE0028CAD154F83D0B016828
:101A600041F400710160202004F81E09E6776677D2
:101A70000020C6E7FFE70220C3E7000002001000D5
:101A80000000FFFF10B586B0002100910191029186
:101A9000039100680F4988421AD10F4CA06940F0A9
:101AA0000800A061A069694600F008000490C02009
:101AB000009012200190032003900848FFF75AFC81
:101AC000E06940F40010E061E06900F40010049067
:101AD00006B010BD0054004000100240000C014050
:101AE00002488168027811448160704750010020EB
:101AF000074810B5016841F010010160032000F0B3
:101B000075F8002000F006F800F024F8002010BD61
:101B10000020024070B50D4D04464FF47A712878CC
:101B2000B1FBF0F00A490968B1FBF0F001F030F8C0
:101B300048B9102C07D200222146501E00F036F87A
:101B400000206C6070BD012070BD000050010020BD
:101B50005C0100200C4808B5816941F001018161F8
:101B6000816901F001010091C16941F08051C161B9
:101B7000C06900F0805000900448416821F0E061A5
:101B800041F00071416008BD0010024000000140BA
:101B9000002809DB00F01F0201219140400980006C
:101BA00000F1E020C0F8001170470000F0B40E4BC7
:101BB0001B680C46C3F30223C3F10705042D00D9AB
:101BC0000425191D072901D2002300E0DB1E012690
:101BD00006FA05F1491E214099409E40761E1640A6
:101BE0003143F0BC04F0A4B80CED00E0064900F06D
:101BF000070208684FF6FF03184040EA0220034A34
:101C000010430860704700000CED00E00000FA058A
:101C100010B50C0607D501F0070101EB810100EBBF
:101C2000C100283005E001EB810100EBC10000F5A7
:101C3000B47099B232B1012202730181190C418151
:101C4000002010BD00220273C180F9E7704701EB4C
:101C5000810200EBC202D0F8E802D26B02F05FBF53
:101C600001EB810200EBC202D0F8E802D2F87C213D
:101C700002F0B8BF70B504460B0601F0070000EB98
:101C8000800104EBC1014FF001024FF0000503D5C4
:101C900081F82920283103E081F8695101F5B471F8
:101CA000087094F8A802012808D084F8A8222068B7
:101CB00003F0D8FB84F8A852002070BD022070BD4C
:101CC00070B5044601F00F006268904201D901200E
:101CD00070BD0B0601F0070000EB800104EBC101B1
:101CE0004FF001024FF0000503D581F8292028317B
:101CF00003E081F8695101F5B4718D70087094F8B2
:101D0000A802012808D084F8A822206803F047FC24
:101D100084F8A852002070BD022070BD2DE9F05F4C
:101D200004685FEA424C0B788D69B4F850C04FF0FC
:101D300000064BF68F7948F2800A48F68F7B48F20E
:101D4000C00E4FF480672AD54FF0020808EBC30895
:101D5000C44407EB4C07E45BC4F30904A54203D376
:101D60002D1B8D6101D00BE08E61066836F8235083
:101D700005EA090585F4005545EA0A0526F82350C9
:101D8000520609D50D78036833F8252002EA0B02C4
:101D900042EA0E0223F8252084B30A8929E04FF095
:101DA000060808EBC308C44407EB4C07E45BC4F324
:101DB0000904A54203D32D1B8D6101D00BE08E6178
:101DC000066836F8235005EA090585F4005545EA0A
:101DD0000A0526F82350520609D40B78056835F811
:101DE000232002EA0B0242EA0E0225F823202CB13E
:101DF0004A8949690068234603F040FF2046BDE850
:101E0000F09F2DE9F05F054600680C465FEA426CE2
:101E100016468B692278B0F850C048F68F774CF29E
:101E200080094FF6FF7B4FF4004E4FF4806A4FF06D
:101E300000017BD54FF0020808EBC208E0440AEB32
:101E4000480C30F80C00C0F30900834211D91B1A6A
:101E5000A3610FD0730407D52E6836F822303B40BB
:101E600043EA090326F8223094F82420012A50D0AE
:101E70004EE1A161607810B1012813D01AE0286802
:101E8000B0F85030184400EB0210B0F8042422F4EB
:101E9000F842A0F80424B0F8042442F40042A0F868
:101EA000042407E02868B0F85030184400EB021012
:101EB000A0F804146278286812B1012A11D018E041
:101EC000B0F850100844217800EB0110B0F80C1461
:101ED00021F4F841A0F80C14B0F80C1441F40041BE
:101EE00005E0B0F850201044227800EB0210A0F872
:101EF0000C1421782846FFF7AAFE7004B8D5217883
:101F00002A6832F82100384040EA090022F821000E
:101F1000FEE0626902446261E2690244E2612369AF
:101F2000226A9A4203D31846111A04E038E084F872
:101F300024100AB110462162617811B1012923D021
:101F40002BE02968B1F850201144227801EB0211EE
:101F500001F2044148B13E280FD84208C30700D01F
:101F6000521C0BEA82220A8017E00A8822F4F84207
:101F70000A800A8842F40042F5E74209C30600D10C
:101F8000521E4EEA8222EEE72968B1F85020114431
:101F9000227801EB0211A1F8040483B22289B3E094
:101FA0004FF0060808EBC208E0440AEB480C30F892
:101FB0000C00C0F30900834211D31B1AA3610FD098
:101FC000730407D42E6836F822303B4043EA0903F5
:101FD00026F8223094F82420012A50D098E0A161FC
:101FE000607810B1012813D01AE02868B0F850309A
:101FF000184400EB0210B0F8042422F4F842A0F8D0
:102000000424B0F8042442F40042A0F8042407E0B9
:102010002868B0F85030184400EB0210A0F80414FF
:102020006278286812B1012A11D018E0B0F8501077
:102030000844217800EB0110B0F80C1421F4F841A9
:10204000A0F80C14B0F80C1441F4004105E0B0F80D
:1020500050201044227800EB0210A0F80C142178D4
:102060002846FFF7F4FD700452D42278296831F82D
:102070002200384040EA090021F8220048E0626965
:1020800002446261E2690244E2612369226A9A427F
:1020900003D31846111A216204E00AB110462162E6
:1020A00084F824106278296812B1012A22D029E02C
:1020B000B1F850201144227801EB021101F20C41D9
:1020C00048B13E280FD84208C30700D0521C0BEA83
:1020D00082220A8016E00A8822F4F8420A800A88DE
:1020E00042F40042F5E74209C30600D1521E4EEA0F
:1020F0008222EEE7B1F850201144227801EB021160
:10210000A1F80C04628983B26169286803F0D4FDE8
:1021100021782A6832F8210048F6BF73184080F011
:10212000300048F28003184322F821000020BDE867
:10213000F09F01F0070101EB810100EBC100D0F835
:10214000840170472DE9F04104460F0601F00700B5
:1021500000EB800104EBC1014FF001064FF00005D8
:1021600003D581F82960283103E081F8695101F530
:10217000B47108700A61CB704A7802B1C881022B31
:1021800000D10D7194F8A802012809D084F8A86242
:10219000206803F039F8284684F8A852BDE8F08199
:1021A0000220FBE770B50C4601F0070505EB850141
:1021B00000EBC101C1E95F230022C1F8842181F84D
:1021C000692181F8685101F5B4716207006803F074
:1021D0003BFA002070BD70B504460D4601F00700C3
:1021E0006168884201D9012070BD29064FF00006C0
:1021F0004FF0010207D500EB800104EBC10181F82B
:102200002920283107E005EB850104EBC10181F8A5
:10221000696101F5B4718A70087094F8A802012808
:1022200007D084F8A822206803F0F5F9680702D0E7
:1022300006E0022070BD04F52C71206803F0ADF9B2
:1022400084F8A862002070BD70B50C4601F0070547
:1022500005EB850100EBC101C1E90F23012281F8E3
:102260004C208B6400234B6481F8292001F8285FFF
:102270006207006803F0E8F9002070BD1FB504464E
:10228000006803F0F7FC000402D5204601F04EFD83
:10229000206803F0EFFC40050CD5206830F8441F9F
:1022A00021F480610180204600F01EF900212046C3
:1022B00000F035F9206803F0DDFC400405D5206806
:1022C00030F8441F21F480410180206803F0D2FCE3
:1022D000800405D5206830F8441F21F400510180A6
:1022E000206803F0C7FCC00414D5206830F8401FF4
:1022F00021F004010180206830F8401F21F008011E
:102300000180204600F003F9206830F8441F21F4D2
:1023100080510180206803F0ADFC00053ED52268A5
:102320000020694632F8203021F81030401CC0B23D
:102330000828F7D332F8400F40F0010010802068E1
:1023400030F8402F22F0010202802068B0F84420CB
:102350005205FBD530F8442F22F480620280002021
:10236000236831F8102023F82020401CC0B2082830
:10237000F6D3206830F8401F41F008010180206842
:1023800030F8441F21F400610180206830F8401FBC
:1023900041F004010180204600F0F6F8206803F0C7
:1023A00069FC800508D5206830F8441F21F40071CD
:1023B0000180204600F0AFF8206803F05BFCC00508
:1023C00005D5206830F8441F21F4807101801FBDBD
:1023D0002DE9F04186B0040004D094F8A90200254C
:1023E00020B108E0012006B0BDE8F08184F8A852D1
:1023F000204600F05BF8032084F8A902206803F06F
:10240000C5F804F11001142288466846FDF79CFEC9
:1024100094E80F0003F024F80226D0BB00212068C6
:1024200003F042FC002001270FE000BF00EB800119
:1024300004EBC10181F8297001F8280FC881CD7023
:102440000D614D61401CC0B28D6161688142EDD863
:10245000002011E000EB800104EBC10181F869511B
:1024600081F8680181F86B51C1F87851C1F87C514D
:10247000401CC0B2C1F8805161688142EAD8142280
:1024800041466846FDF760FE94E80F0003F075F8DA
:1024900010B184F8A962A5E784F8245084F8A972E1
:1024A000206803F068F800209DE7000008B5006888
:1024B0000B49884212D10B48C16941F40001C16146
:1024C000C069002200F40000009011461420FFF7BC
:1024D0006DFBBDE808401420FFF75ABB08BD0000A3
:1024E000005C00400010024070B504468068012581
:1024F000022801D0FEF7CCFB2946D4F8E80202F00E
:102500005AFCD4F8E802BDE8704002F016BCD0F8DE
:10251000E80202F03ABCD0F8E80202F040BC10B584
:10252000044690F8A80201280BD0012084F8A802E4
:1025300084F82410206803F0B9FB002084F8A80276
:1025400010BD022010BDD0F8E82200F52C71104615
:1025500002F03DBC10B5044690F8A802012810D046
:10256000012084F8A802206803F074FB01212046B2
:10257000FFF76CFB206802F0FCFF002084F8A80243
:1025800010BD022010BD000010B50446D0F8E802CE
:1025900002F05CFCA069002804D00348016841F007
:1025A0000601016010BD000010ED00E02DE9F843C8
:1025B00005460078354CC00754D0E0690026C000BD
:1025C00008D4E06940F08050E061E069012600F045
:1025D000805000902E480168C90512D401688046D9
:1025E00041F480710160FEF7C3FF074605E000BFBC
:1025F000FEF7BEFFC01B642823D8D8F80000C00532
:10260000F6D5206A10F4407021D0A98801F44071F9
:1026100081421CD0206A1F49012220F440700A60C8
:1026200000220A602062C00711D0FEF7A1FF074612
:1026300041F2883808E000BFFEF79AFFC11B414510
:1026400002D90320BDE8F883206A8007F4D5206A08
:10265000696820F44070084320621EB1E06920F0F0
:102660008050E0612878800705D56068A96820F46B
:102670004040084360602878C00605D56068E96876
:1026800020F48000084360600020DBE70010024077
:1026900000700040400442422DE9F0470F4605001B
:1026A00061D0434E306800F00700B84209D230686C
:1026B00020F0070038433060306800F00700B8426F
:1026C00051D128683B4C810712D5400703D560687B
:1026D00040F4E06060602878000703D5606840F44B
:1026E000605060606068A96820F0F0000843606096
:1026F0002878C00728D06868012810D021680228EF
:1027000010D0890700292EDA616821F00301014306
:102710006160FEF72DFF804641F288390DE02168A7
:102720008903EFE78901EDE7FEF722FFA0EB08013F
:10273000494502D90320BDE8F0876068696800F068
:102740000C00B0EB810FEFD1306800F00700B84209
:102750000BD9306820F0070038433060306800F053
:102760000700B84201D00120E5E72878400705D5E9
:102770006068E96820F4E06008436060287800073A
:1027800006D56068296920F4605040EAC1006060A5
:1027900000F038F86168084AC1F30311515CC84081
:1027A0000649086006480068FFF7B4F90020C2E750
:1027B0000020024000100240946D00085C010020DF
:1027C000540100200448054900684968044AC1F3DF
:1027D0000221515CC84070475C010020001002409B
:1027E000A46D00080448054900684968044AC1F31B
:1027F000C221515CC84070475C01002000100240BB
:10280000A46D000812A185B00FC98DE80F0014A0B7
:10281000144A006804905168134801F00C03042B1B
:1028200010D0082B0ED1C1F38343C9031DF8030058
:102830000AD5516804AAC1F34041515C0A4A504389
:10284000B0FBF1F005B0704708494843FAE70000D3
:1028500002030405060708090A0B0C0D0E0F1010E1
:10286000010200000010024000127A0000093D0041
:102870002DE9F84F040070D02078C04DC00749D032
:102880006868C0F38100012807D06868C0F3810040
:10289000022809D16868C00306D52868800339D5A5
:1028A00060680028E7D035E06068B0F5803F0BD065
:1028B00010B1B0F5A02F11D0286820F48030286026
:1028C000286820F4802002E0286840F480302860E6
:1028D000606890B1FEF74CFE06460AE0286840F4B6
:1028E00080202860F0E700BFFEF742FE801B6428CE
:1028F00073D828688003F7D50CE0FEF739FE06464A
:1029000005E000BFFEF734FE801B6428F0D828687D
:102910008003F7D420789A4E80074FF001094FF0DA
:10292000000839D5686810F00C0F07D06868C0F34C
:102930008100022809D16868C00306D4286880078E
:1029400014D52069012808D110E02069B0B1C6F87B
:102950000090FEF70DFE074605E00AE1FEF708FECF
:10296000C01B0228C4D828688007F7D52868616989
:1029700020F0F80040EAC10028600DE0C6F80080B1
:10298000FEF7F6FD074604E0FEF7F2FDC01B022845
:1029900023D828688007F7D4207800072CD57948F9
:1029A000A169D9B1C0F80090FEF7E2FD074604E046
:1029B000FEF7DEFDC01B02280FD8686A8007F7D536
:1029C00071484FF4FA510068B0FBF1F0009000BF7D
:1029D0000098411E0091FAD20EE080E0C0F800801D
:1029E000FEF7C6FD074604E0FEF7C2FDC01B022845
:1029F00075D8686A8007F7D42078400760D5E86901
:102A00000027C00008D4E86940F08050E861E86918
:102A1000012700F0805000905C480168C90513D47C
:102A20000168834641F480710160FEF7A1FD824692
:102A300006E000BFFEF79CFDA0EB0A0064284ED81C
:102A4000DBF80000C005F5D5E06801280AD008B120
:102A5000052813D0286A20F001002862286A20F097
:102A6000040002E0286A40F001002862E06841F2B8
:102A7000883B98B1FEF77CFD82460BE0286A40F067
:102A800004002862EEE700BFFEF772FDA0EB0A012A
:102A900059455AD8286A8007F6D50CE0FEF768FD3C
:102AA000824605E0FEF764FDA0EB0A0159454CD8CB
:102AB000286A8007F6D41FB1E86920F08050E861E9
:102AC000E06988B36968C1F38101022944D0022812
:102AD000C6F8608004D0FEF74BFD044638E034E0D1
:102AE000FEF746FD074604E0FEF742FDC01B022844
:102AF0002BD828688001F7D4206AB0F5803F05D133
:102B00006868A16820F4003008436860D4E90801CF
:102B10000843696821F4741108436860C6F860903E
:102B2000FEF726FD044606E025E000BFFEF720FD87
:102B3000001B022809D828688001F7D51BE000BFD8
:102B4000FEF716FD001B022802D90320BDE8F88F0E
:102B500028688001F4D40EE00128F7D06868226A62
:102B600000F48031914204D1616A00F4701088420F
:102B700001D00120EAE70020E8E700000010024051
:102B800000004242800442425C010020007000408C
:102B900010B5401EB0F1807F01D3012010BD4FF071
:102BA000E02460610F21601703F0C2F80020A061EB
:102BB00007202061002010BD7047704770B590F865
:102BC0003C20012A26D0012480F83C40022280F8D3
:102BD0003D2003685A689D6822F070060A683243F7
:102BE0005A600D4B02689A4208D0B2F1804F05D06E
:102BF0000A4B9A4202D00A4B9A4204D1496825F006
:102C000080031943916080F83D40002180F83C101A
:102C1000084670BD022070BD002C01400004004039
:102C20000008004010B5040003D094F83D0010B136
:102C300007E0012010BD002084F83C00204600F091
:102C40001FF8022084F83D00211D206801F0EEFAF3
:102C5000012084F8460084F83E0084F83F0084F8A0
:102C6000400084F8410084F8420084F8430084F86E
:102C7000440084F8450084F83D00002010BD0000A9
:102C800008B500680B49884212D10B48816941F4AC
:102C9000006181618069002200F4006000901146AB
:102CA0001920FEF783FFBDE808401920FEF770BF2A
:102CB00008BD0000002C01400010024090F83D10BB
:102CC000012901D001207047022180F83D100168E0
:102CD000CA6842F00102CA6000680B49884208D005
:102CE000B0F1804F05D00949884202D00849884296
:102CF00004D1816801F00701062903D0016841F081
:102D00000101016000207047002C014000040040D8
:102D10000008004070B5044690F83C00012817D028
:102D2000012584F83C50022084F83D002068826828
:102D300022F0770222F47F4282600868502830D067
:102D40000DDC20284DD005DC98B310283BD148E09D
:102D5000022070BD302844D0402834D139E06028AA
:102D600028D0702806D0B0F5805F2CD0B0F5005F79
:102D700029D10AE0CB68D1E90121206801F08CFA61
:102D80002068816841F0770109E0CB68D1E9012131
:102D9000206801F081FA2068816841F480418160F7
:102DA00011E0CA684968206801F088FA502120685B
:102DB00007E016E0CA684968206801F090FA6021CF
:102DC000206801F073FA84F83D50002084F83C003C
:102DD00070BDCA684968206801F070FA4021206817
:102DE000EFE7226801461046EBE7704770B50446EE
:102DF000006801694FF00005C943890715D4C1680F
:102E0000C943890711D4E91E016101202077206898
:102E100080698007204602D0FFF7E7FF04E000F05A
:102E200098F8204600F096F8257720680169C94394
:102E3000490717D4C168C943490713D46FF0040187
:102E40000161022020772068806910F4407F2046CD
:102E500002D0FFF7CAFF04E000F07BF8204600F044
:102E600079F8257720680169C943090716D4C16834
:102E7000C943090712D46FF00801016104202077CB
:102E80002068C0698007204602D0FFF7AEFF04E04B
:102E900000F05FF8204600F05DF8257720680169B2
:102EA000C943C90617D4C168C943C90613D46FF012
:102EB00010010161082020772068C06910F4407F6C
:102EC000204602D0FFF791FF04E000F042F82046D0
:102ED00000F040F8257720680169C943C90708D187
:102EE000C168C943C90704D1891E0161204600F0A9
:102EF00033F820680169C943090609D4C168C94388
:102F0000090605D46FF0800101612046FFF754FEE9
:102F100020680169C943490609D4C168C943490603
:102F200005D46FF040010161204600F07FF8206871
:102F30000169C94389060BD4C168C943890607D40E
:102F40006FF0200101612046BDE87040FFF735BEFB
:102F500070BD7047704700002DE9F0412E490068B0
:102F60002E4E0968DFF8B88000252E4F2E4C88427F
:102F700041D16088401C80B26080FDF777FBE16939
:102F8000FDF7F6FB11D26580A069E061B84209D374
:102F9000012208213046FEF7E5FAE06980F00040A2
:102FA000E0610FE00022082109E06088012802D0DA
:102FB000022802D006E0012200E000221021304663
:102FC000FEF7D0FAA088401C80B2A080FDF74EFB2F
:102FD000616AFDF7CDFB12D2A580206A4FF48041D3
:102FE0006062B84209D300224046FEF7BBFA606A2D
:102FF00080F000406062BDE8F081012207E0A08817
:103000004FF400410128F8D00228F4D100224046B4
:10301000BDE8F041FEF7A6BAFC020020000801401E
:1030200000100140000080800000002070477047C1
:1030300070470000F8B5026804461068D16853690B
:1030400010F00F0F4FF0000553D003F0010601F40C
:10305000907737435FD0C20705D0CA0503D5226CED
:1030600042F001022264420705D5DA0703D0226C40
:1030700042F002022264820705D5DA0703D0226CEF
:1030800042F004022264020707D501F02002324315
:1030900003D0226C42F008022264226C002A34D051
:1030A000800604D5880602D5204601F04AF920683A
:1030B0004069216CC0F38010090700D430B320466A
:1030C00001F027F92068416949061BD5416921F0C3
:1030D00040014161A06BA8B158494163A06BFDF765
:1030E000DBFF002811D0A06B416B01B0BDE8F040C0
:1030F000084783060FD58B060DD52046BDE8F8405E
:1031000001F01FB92046FFF793FFF8BD2046FFF7F7
:103110008FFF2564F8BD266B2023012E52D1C606F1
:1031200050D5CE064ED510685068009050694006C4
:103130002AD5A16B086840680004000CEAD0A68D6F
:103140008642E7D9E0858869202818D0D06820F425
:103150008070D0602068416921F0010141612068E0
:10316000416921F04001416184F83E3025632068C7
:10317000C16821F01001C160A06BFDF769FFA08D4F
:10318000E18D401A81B219E0A08DE18D401A81B223
:10319000E08D0028BED00029BCD0D06820F490700B
:1031A000D0602068426922F00102426184F83E301A
:1031B00025632068C26822F01002C2602046FFF733
:1031C00036FFF8BD05062BD50D0629D594F83D0030
:1031D0002128F6D1A068B0F5805F01D12069B0B197
:1031E000206A411C2162216800784860E08C401E02
:1031F0000004000CE084E4D12068C16821F0800163
:10320000C1602068C16841F04001C160F8BD206A1A
:103210000088C0F308005060206A801C2062E5E747
:103220004006F3D54806F1D5D168204621F040018B
:10323000D16084F83D3000F06CF9F8BD034300081C
:1032400070B5040004D094F83D00002510B106E0EC
:10325000012070BD84F83C50204600F023F8242063
:1032600084F83D002068C16821F40051C160204607
:1032700001F0C2F82068016921F4904101612068E1
:10328000416921F02A0141612068C16841F400517F
:10329000C1602564202084F83D0084F83E000020B1
:1032A00070BD000030B585B00024009401940294F4
:1032B00003940068184988422CD11848816941F468
:1032C00080418161816901F480410491816941F00B
:1032D000040181618069124D00F0040004904FF4F4
:1032E0000070009002200190032003906946284658
:1032F000FEF740F82815CDE90004694628460294F7
:10330000FEF738F8002211462520FEF74FFC252055
:10331000FEF73EFC05B030BD003801400010024011
:103320000008014090F83E30202B0ED159B152B127
:1033300090F83C30012B08D0012380F83C3000236A
:10334000036301F0B5B80120704702207047000008
:103350002DE9F04137490068096888422ED1364C82
:103360003648374E6278374F05684FF07C51462A11
:1033700030D014DC302A42D0422A1FD1A068B0F1EC
:103380007F5F03DAA068FCF70AFFA0602E48854241
:1033900014DAA068FDF78DF932463B4644E02B4D28
:1033A0004C2A0DD0522A09D129462069FCF749FF41
:1033B000206129466069FCF7F2FE6061BDE8F0819A
:1033C00029462069FCF7EBFE206129466069FCF77D
:1033D00038FFF2E7A0681E4A904203D2A068FCF7CB
:1033E00030FFA0601B488542E8D2A068FDF761F974
:1033F00032463B460DE000BFFDF79EF918E0A0689D
:10340000154DB0F5000FA06806DBFDF752F9324606
:103410002B46FDF72DF8EFE710F1FF4F07D3A0681B
:10342000FDF747F932462B46FCF781FFE4E70B48EE
:10343000A060C3E74403002000000020EC0000204F
:103440009A9999999999A93F0000484300004842E8
:103450000000C0BF000048C39999C93F000080BF69
:103460002DE9F843044690F83D001F4616460D46E8
:1034700020284CD1C5B1BEB194F83C00012846D0FB
:10348000012084F83C004FF00008C4F8408021205F
:1034900084F83D00FEF76CF8A6848146E684A068B7
:1034A000B0F5805F03D004E00120BDE8F883206917
:1034B00028B12E465FF0000584F83C800EE000261F
:1034C000FAE78021204601F00EF8A0B9AEB116F857
:1034D000010B21684860E08C401EE084E08C4B4684
:1034E0004FF0000200970028EBD14FF0400120463A
:1034F00000F0F9FF30B10320D7E735F8020BC0F335
:103500000800E6E7202084F83D000020CDE70220F7
:10351000CBE77047FEE701684A69D24352050FD4F2
:103520006FF480624A61002140F8301F202242730C
:103530008173026942F00402026101730120704745
:10354000002070472DE9F84F0446006889460B9D1E
:1035500001689846174641F480610160206801685F
:1035600041F48071016000954FF0011B0022594623
:1035700020460A9B00F0DEF84FF4007A40B1206844
:103580000068C00501D5C4F840A00320BDE8F88F4D
:10359000216809F0FE0008612B46284920460A9A56
:1035A00000F0FCF8F0BB20684169806900902A4671
:1035B00020460A9900F070F940B1206C04283AD1F5
:1035C0002068016841F40071016034E0FEB2B8F196
:1035D000010F09D02168380A08612A4620460A9955
:1035E00000F05AF90028E8D1206806612A462046F2
:1035F0000A9900F051F90028DFD12068016841F4F0
:103600008071016000950022594620460A9B00F017
:1036100091F80028B3D1216809F0FF0040F00100C3
:10362000086100E007E02B46044920460A9A00F0B2
:10363000B5F80028AAD00120A8E700000200010088
:103640002DE9F843044600680D46DDE90897016856
:103650009846164641F4807101604B4600224FF0B7
:1036600001112046009700F065F848B12068006815
:10367000C00502D54FF4007020640320BDE8F88334
:10368000216805F0FE0008613B464A461549204680
:1036900000F084F888B920684169806900903A4652
:1036A0004946204600F0F8F848B1206C042804D1BF
:1036B0002068016841F4007101600120DEE7F5B285
:1036C000B8F1010F09D02168300A08613A4649462D
:1036D000204600F0E1F80028E7D1206805610020CD
:1036E000CCE700000200010070B516460D46044606
:1036F0000DE02046FFF70FFF08B1012070BD681CE8
:1037000005D0FDF735FF801BA84207D835B12068EA
:103710004069C0434007ECD4002070BD002044F84D
:10372000300F20216173A073216941F020012161D4
:103730002073E2E72DE9F0471E4690460D46044609
:10374000C1F30747DDF8209008E0701C06D0FDF7B4
:103750000FFFA0EB0900B0420FD876B12068012F0F
:1037600018D0806925EA00000004000C14D0002164
:103770004145EAD00020BDE8F087002044F8300F32
:1037800020216173A073216941F020012161207320
:103790000120F0E74069E5E70121E9E72DE9F0477D
:1037A0009A4691460E46044600254FF02008C1F384
:1037B000074725E020684069C043400514D42068CD
:1037C000016841F40071016021686FF48060486114
:1037D000256384F83D8084F83E50206C40F004005E
:1037E000206484F83C501FE0B9F1FF3F08D0FDF79A
:1037F000BFFEA0EB0A0149450CD8B9F1000F09D072
:103800002068012F13D0806926EA00000004000C14
:103810000BD0CFE744F8305F84F80D80A5732069A2
:1038200040F02000206125730120BDE8F087406949
:10383000EAE72DE9F041002590460E460446202790
:1038400017E04069C043C0060CD454F8301B6FF039
:103850001000486144F810596777A577206A206204
:10386000257717E0FDF784FEA0EB0800B04208D8EA
:103870003EB120684169C9434906E2D40020BDE851
:10388000F08144F8305F6773A573206940F0200031
:10389000206125730120F2E770B516460D460446F7
:1038A0000DE02046FFF737FE08B1012070BD681C0F
:1038B00005D0FDF75DFE801BA84207D835B1206812
:1038C0004069C0430006ECD4002070BD002044F8DD
:1038D000300F20216173A073216941F02001216123
:1038E0002073E2E7F0B500230A24302537261F466F
:1038F00011E000BFB4EB107F02D905EB107C01E0B2
:1039000006EB107C01F813C001EB430C00015B1CBB
:103910008CF80170DBB29342ECD3F0BD2DE9F04797
:1039200088B00C4664230E2203A98DE80E00012303
:103930003B22D021FDF7E6FEBDF80C0040BA00B2F4
:103940002080BDF80E1049BA09B261808946BDF8E1
:10395000101049BA09B2A1808846BDF8141049BABE
:103960000FB22784BDF8161049BA0EB26684BDF8AE
:10397000181049BA0DB2A584FCF77DFE6FF00D0A50
:103980005246FCF75CFEC4E902014846FCF773FEB0
:103990005246FCF754FEC4E904014046FCF76BFEB6
:1039A00000223C4BFCF7DCFDC4E906013846FCF77D
:1039B00062FE394F00223B46FCF7D2FDC4E90A0102
:1039C0003046FCF758FE00223B46FCF7C9FDC4E92F
:1039D0000C012846FCF74FFE00223B46FCF7C0FDD9
:1039E000C4E90E01FDF7C4FD2C4D2968401AFCF70F
:1039F00053FE00222A4BFCF7B3FD07468846FDF72D
:103A0000B7FD2860B4F90010B4F90400494300FB85
:103A10000010FCF730FE03F097F9002205460E4631
:103A20001346FCF759FE10D0B4F90200FCF723FE50
:103A30002A463346FCF794FD02F04AFE194A1A4B17
:103A4000FCF71CFD05460E4601E000252E46D4E994
:103A50000A013A464346FCF711FDD4E91223FCF76C
:103A600066FC07468846114A114B28463146FCF74A
:103A700005FD05460E460F4A0F4B38464146FCF7FA
:103A8000FDFC2A463346FCF752FCC4E9120108B09B
:103A9000BDE8F0870029CC4000606040480000206D
:103AA00000408F40F8C1631ADCA54C407B14AE4740
:103AB000E17A943F5C8FC2F5285CEF3F2DE9F0413D
:103AC00086B08046012604A8CDE9000600246425BE
:103AD0008DF810408DF80C4033467522D0210295A8
:103AE0004046FDF70FFE9DF81000682805D0982885
:103AF00003D0012006B0BDE8F08103AF8DF80C4083
:103B00000097CDE9016501236B22D0214046FDF7E6
:103B100021FF07208DF80C000097CDE901650123F6
:103B20001922D0214046FDF715FF8DF80C40009773
:103B3000CDE9016501231C22D0214046FDF70AFF93
:103B40008DF80C400097CDE9016501231B22D0219F
:103B50004046FDF7FFFE0020CCE700003EB5002107
:103B6000174800910191154A0291026092158260F6
:103B700001240473017502254FF460220561C261BE
:103B80004160FDF709F908B172B6FEE70920CDE9F9
:103B900000040720029069460948FDF77BF808B148
:103BA00072B6FEE70820CDE9000569460448FDF736
:103BB00071F8002801D072B6FEE73EBD0024014036
:103BC000780200202DE9F04186B0002424480094BA
:103BD000019402940394816941F01001816181692B
:103BE00001F010010491816941F020018161816936
:103BF00001F020010491816941F004018161816932
:103C000001F004010491816941F00801816180693A
:103C1000144F00F008004FF460450490002229463C
:103C20003846FDF79FFCDFF840800022FF21404628
:103C3000FDF798FC0095022601250396CDE9015475
:103C400069463846FDF796FBFF20CDE90005CDE932
:103C5000024669464046FDF78DFB06B0BDE8F0819F
:103C600000100240001001400008014010B586B06D
:103C70000024174800940194029403940494134977
:103C8000059401601321C0E901144721C0E9031420
:103C900044618461FEF7C6FF08B172B6FEE74FF4D7
:103CA0008050009069460A48FFF734F808B172B6B0
:103CB000FEE7049404A906480594FEF77FFF002858
:103CC00001D072B6FEE706B010BD0000002C014026
:103CD000FC02002010B500220F49104800F0F8FE49
:103CE00008B1FCF7D5FF0E490C4801F0D5F808B132
:103CF000FCF7CEFF0B49094800F012FD08B1FCF7B4
:103D0000C7FF064801F01EF9002803D0BDE81040A7
:103D1000FCF7BEBF10BD0000F000002054040020DE
:103D20003C02002040010020FEE7FEE72DE9F84FAD
:103D3000044640F68F7B48F60F7A4FF002094FF4A5
:103D4000806874E1B0F8441011F00F063AD030F8F2
:103D5000267039047DD530F8261001EA0B0141F0B8
:103D6000800120F8261006EB860004EBC00595F8CC
:103D7000740105F5B47500286CD0E87802286AD083
:103D80002878226832F8201048F68F73194048F2DC
:103D9000C003194322F820102878D4F800C03CF85A
:103DA0002010BCF8502049047ED509EBC000111842
:103DB00008EB41003CF800008005800D009074D0B5
:103DC0002A89D8E0C9062DD4018801EA0A0141F404
:103DD00000410180216804F12805B1F850202B78BA
:103DE00009EBC300024408EB4200085AC0F3090083
:103DF0006064E16B0844E06300212046FDF727FF83
:103E000094F8240000289CD0A869002899D194F83F
:103E10002400216840F08000A1F84C00002084F8C4
:103E2000240004E1018804F5B4750A0521D5B0F831
:103E300050202B78062101EBC3010A4408EB420114
:103E4000405A04F52C71C0F30903EB61EA8820683D
:103E500002E0ACE068E07AE001F010FF2168088839
:103E600000EA0B0040F0800008802046FEF76BFB64
:103E7000DDE00904D5D5018801EA0B0141F080019C
:103E800001802068B0F850202B78062101EBC30197
:103E90000A4408EB4201405A83059B0DEB6110D0A8
:103EA000696971B1EA8801E058E056E0206801F0E4
:103EB000E5FEE96968690844686100212046FDF76C
:103EC000CFFE2068018809052DD4B0F850100844B1
:103ED000296900F20C4051B13E2910D84A08C9079F
:103EE00000D0521C4FF6FF7101EA82210FE00188D9
:103EF00021F4F8410180018841F4004107E04A09BA
:103F0000C90600D1521E4FF4004141EA82210180CE
:103F1000206801884BF68F72114081F4405148F2BD
:103F200080021143018082E0D4F800C0BCF8501038
:103F30002A78062000EBC200014408EB41003CF85F
:103F400000008005800D00901AD0EA8813E03A4600
:103F500029462046FDF7E2FE009011E0062101EB24
:103F6000C000111808EB41003CF800008005800DEE
:103F7000009005D06A8903466046696901F07EFEBB
:103F8000E96900980844E861696900980844686133
:103F9000A86918B129690098814204D92978204676
:103FA000FDF75EFE03E02946206801F04DFB380670
:103FB0003DD506EB860004EBC001206830F82620D2
:103FC00002EA0A0242F4004220F8262091F82B006F
:103FD0002831032804D018B1022824D1F80522D4AE
:103FE0002368B3F850200D7809EBC500024408EBB4
:103FF0004200185A8A69C0F3090082420CD9121A89
:104000008A610BD04A6902444A61CA691044C86196
:10401000206801F019FB0AE000208861E9B220461F
:10402000FDF715FE03E03A462046FDF7EAFE20685C
:10403000B0F8441009043FF585AE0020BDE8F88FC4
:10404000704700002DE9FF4F81B04648DDE90E566C
:10405000454C8B4692464FF00009854202DC4348AE
:10406000854206D9C4F80C90C4F80490C4F80890AE
:1040700071E0FDF77DFA2168401AFCF7F7FA8046F7
:10408000FDF776FA206029463046FCF7DAF8054657
:104090003749E068884202DC3649884211D9FCF78A
:1040A00008FB354A354BFCF7E9F906460F4628462A
:1040B000FCF7FFFA32463B46FCF739F9FCF73CFBCC
:1040C00005462F4F18F0FF4F0FD029466068FCF7C8
:1040D000B8F8064639460498FCF7B9F83146FCF7BB
:1040E000B6F84146FCF7E5F8009041462846FCF753
:1040F000AEF8A168FCF753F80146A0605046FCF703
:10410000A6F83946FCF7D5F806461E48864202DC7A
:104110001D48864200D9064658462946FCF797F8BE
:104120003146FCF73CF80099FCF739F80199FCF7A7
:104130008EF816496560E060884202DC14498842C6
:1041400001D9E16007E01349884204DA1249884244
:1041500001D2C4F80C90E06805B0BDE8F04FFCF760
:10416000A8BA00000000F041E0000020000004C2F6
:1041700000002041000020C1B81E85EB51B88E3FE1
:1041800000007A4400004843000048C30000C843D0
:104190000000C8C30000A0400000A0C07047FDF7A9
:1041A0009FBC30B593B028216846FBF7E6FF142189
:1041B0000AA8FBF7E2FF002401200F941094119449
:1041C000010412948DE8130004904FF4E010CDE93F
:1041D0000810022507956846FEF74AFB08B172B63B
:1041E000FEE70F20CDE90A054FF48060CDE90C40D1
:1041F00002210AA80E94FEF74FFA08B172B6FEE744
:1042000012200F904FF40040CDE911040FA8FEF7E3
:10421000CDF9002801D072B6FEE713B030BD70476B
:104220000148FEF7E3BD0000FC020020F0B5026883
:10423000164B174C174D4FF08047984205D0B842A7
:1042400003D0A04201D0A84203D122F070064A68F0
:104250003243984205D0B84203D0A04201D0A842D0
:1042600003D122F44074CA6822434C6922F08002D0
:10427000224302608A68C2620A688262984201D15F
:104280000969016301214161F0BD0000002C01407A
:10429000000400400008004010B5846842EA032290
:1042A00024F47F440A432243826010BD826822F0D6
:1042B00070020A4342F007018160704710B5036A3B
:1042C000046A24F001040462846924F0F00444EADE
:1042D000021423F00A020A438461026210BD10B581
:1042E000036A23F0100303628369046A23F47043B2
:1042F00043EA023224F0A00343EA01118261016221
:1043000010BD10B5406A0021C185C184FEF790FE42
:1043100010BD0168CA6822F49072CA6001684A69D7
:1043200022F001024A61016B012904D10168CA68C7
:1043300022F01002CA60202180F83E1000210163A3
:10434000704708B590F83E10222901D0022008BD20
:1043500082684FF480539A4201D1016921B1816A88
:104360009A421BD04AB10AE00268816A5268C2F3DD
:1043700008020A80816A891C08E0026972B1026839
:10438000526802F07F020A70816A491C8162C18D05
:10439000491E0904090CC18503D019E0026852685E
:1043A000F1E70168CA6822F02002CA600168CA68A1
:1043B00022F48072CA6001684A6922F001024A61EF
:1043C000202180F83E10016B012903D0FEF7C0FFC9
:1043D000002008BD002101630168CA6822F01002B4
:1043E000CA6001680A68D20602D50A684968009165
:1043F000818DFEF71CFEEBE770B50446006801698D
:10440000E26821F44051114301612169A068084329
:10441000616908432168CA6841F20C639A43024308
:10442000CA6020684169A26921F440711143416169
:104430001E492068884202D1FEF7D4F901E0FEF758
:10444000C1F900EBC00101EB00126068642180003B
:10445000B2FBF0F3B3FBF1F36FF018067343B2FB5A
:10446000F0F5B2FBF0F605EB8305322303EB0515FF
:10447000B5FBF1F5B6FBF1F605F0F00505EB061519
:10448000B2FBF0F6B2FBF0F0B0FBF1F06FF0180207
:10449000504306EB800003EB0010B0FBF1F0216805
:1044A00000F00F002844886070BD00000038014013
:1044B00081628285C28500210164222280F83E202B
:1044C00080F83C100168CA6842F48072CA600168D2
:1044D0004A6942F001024A610068C16841F0200166
:1044E000C160002070472DE9F041984617460E46FE
:1044F0000446069D1DE0681C1BD02DB1FDF738F861
:10450000A0EB0800A84214D92068C16821F4D0713A
:10451000C1602068416921F001014161202084F8D7
:104520003D0084F83E00002084F83C000320BDE8F4
:10453000F0812068006836EA000004D00020B8420C
:10454000D9D00020F3E70120F9E700000148FEF789
:1045500071BD0000440300202DE9F041D0F8C032C5
:10456000D0F8B822CAB101EB810500EB8504002622
:10457000E7693FB103EBC5039B6BB7FBF3F503FBA7
:10458000157323B1C2F814620020BDE8F081002346
:104590001A46E66100F063FCF6E70220F5E770B525
:1045A0000546D0F8B84200F05EFBC4F80C02D5F81E
:1045B000B80248B1D5F8BC12D4F80402CA6804F5B0
:1045C00003719047002070BD022070BD70B5044695
:1045D0000026812100F09AFA002501212046E5629B
:1045E00000F094FA82212046C4F86C5100F08EFA53
:1045F0002564D4F8B80248B1D4F8BC0204F52E748E
:1046000040688047206800F0FAFD2560304670BDA4
:1046100010B5D0E9AE4159B194F80002FF2807D097
:104620008B6894F8012221469847FF2084F8000205
:10463000002010BD0A21018000487047640100205D
:104640004321018000487047B401002043210180CC
:1046500000487047700100204321018000487047E6
:10466000F80100202DE9F04104460026007C4FF4BB
:104670000077012590B3402302228121204600F0DB
:1046800047FB4023E56202220121204600F040FB67
:104690000823032282212046C4F86C5100F038FB25
:1046A0004FF40770256400F0ABFDC4F8B802F8B110
:1046B0000546D4F8BC02006880470020C5F8140203
:1046C000C5F81802207CD5F8042298B140230121B6
:1046D000204600F029FB3046BDE8F081FFE73B466D
:1046E00002228121204600F013FB3B46E562CAE727
:1046F0000126F0E73B46EAE710B5D0F8B81269B1F9
:10470000027C002AD1F8042205D04023012100F0C8
:104710000BFB002010BD4FF40073F7E7022010BD23
:1047200002460220002902D00020C2F8BC127047C5
:10473000D0F8B802C0F8041200207047D0F8B802D0
:10474000C0F81022C0F80812002070472DE9FC4183
:104750000546D0F8B87200208DF80000ADF80400CE
:10476000064608780C4610F0600121D020293BD184
:10477000E288AAB10006607807D5D5F8BC128B682C
:1047800039469847E288394626E087F80002A07942
:1047900087F80102E2883946284600F04FF828E001
:1047A000D5F8BC12607800228B682146984720E03B
:1047B000607820B10A2809D00B2815D110E095F8AF
:1047C0009C02032810D1022201A905E095F89C0261
:1047D000032809D101226946284600F049F808E07B
:1047E00095F89C02032804D02146284600F01BF8C7
:1047F00002263046BDE8FC8110B5D0F8B4225268DC
:104800009047002010BD134610B50A46002100F065
:104810008BFA002010BD134610B50A46002100F0A7
:104820001EFB002010BD10B50446802100F0FCFAEC
:104830002046BDE81040002100F0F6BA10B5032371
:10484000C0F85C21C0F89432C0F8602113460A46D3
:10485000002100F069FA002010BD10B505210023E9
:10486000C0F894121A46194600F05EFA002010BDF6
:1048700010B50223C261C0F89432026213460A46A0
:10488000002100F0ECFA002010BD10B50421002337
:10489000C0F894121A46194600F0E1FA002010BD43
:1048A00010B50A46024903A000F0E2F8004810BD26
:1048B0001807002043444320436F6E666967000079
:1048C00012200880004870471001002010B50A46E9
:1048D000024903A000F0CCF8004810BD18070020E2
:1048E00043444320496E746572666163650000004D
:1048F00004200880004870470C01002010B50A46CB
:10490000024903A000F0B4F8004810BD18070020C9
:1049100053544D6963726F656C656374726F6E6931
:104920006373000010B50A46024903A000F0A0F826
:10493000004810BD1807002053544D3332205669EB
:10494000727475616C20436F6D506F72740000005B
:1049500010B51A2008800A480168001D0468001D6F
:104960000068081809D008220649FEF7BBFF054970
:10497000042210312046FEF7B5FF0248801E10BD0C
:10498000E8F7FF1F26010020F8B504460020ADF827
:10499000000048880D46010A082948D2DFE801F0E6
:1049A0004704091747473C45D4F8B012207C0A68F1
:1049B00019E0207C02260028D4F8B40205D0C16A90
:1049C00068468847014646703EE0816AF8E7C0B213
:1049D00006282CD2DFE800F0030A1014181CD4F8C3
:1049E000B002426805E0694690471CE0D4F8B00286
:1049F0008268E2B1207CF6E7D4F8B002C268F8E73A
:104A0000D4F8B0020269F4E7D4F8B0024269F0E7E2
:104A1000D4F8B0028269ECE7207C40B9D4F8B40243
:104A2000416B6846884701460EE0207C20B129464C
:104A30002046FFF7F8FEF8BDD4F8B402016B6846D3
:104A40008847014607204870BDF8000048B1EA8851
:104A500052B1824200D90246ADF800202046FFF74D
:104A600007FFE8880028E6D12046FFF70EFFF8BDD3
:104A700070B5002300281ED00446002502E06D1CFE
:104A8000EDB2641C2678002EF9D1022404EB450413
:104A900014801278CA545B1C0322CA5400245B1C85
:104AA00006E0CA545B1CDAB28C54521CD3B2401CD0
:104AB0000278002AF5D170BD01004FF0000004D04B
:104AC000012901D0022901D002207047012070473E
:104AD00010B580B1D0F8B43213B10023C0F8B432AD
:104AE00009B1C0F8B012012180F89C12027000F0E8
:104AF000BFF8002010BD022010BD10B5D0F8C002D4
:104B0000FDF7DEF8BDE81040FFF7D6BF10B5D0F8CE
:104B1000C002FDF7AFF8BDE81040FFF7CDBF2DE9AB
:104B2000F0411746044651B1D4F8B40242691AB1B3
:104B300094F89C02032851D00220BDE8F081D4F8FB
:104B40009432002504F11400022B03D0042B3AD038
:104B5000C3B33CE0D0E903639E4207D9F11AC160B8
:104B60008AB239462046FFF756FE12E08068B0FB55
:104B7000F3F103FB110199B9984211D3D4F89812BB
:104B800088420DD2002211462046FFF744FEC4F8A9
:104B9000985200231A461946204600F0C5F816E040
:104BA000D4F8B402C16829B194F89C02032801D159
:104BB000204688478021204600F036F92046FFF73E
:104BC0004CFE04E0FFE78021204600F02DF994F828
:104BD000A002012804D184F8A05201E020469047A9
:104BE0000020AAE770B51546044649B1D4F8B402CE
:104BF00082691AB194F89C02032830D0022070BD5B
:104C0000D4F8941204F5AA70032902D005291ED005
:104C100027E0D0E903218A420BD9531AC360084622
:104C2000834200D303469AB229462046FFF7EBFDA4
:104C300017E0D4F8B402016929B194F89C02032862
:104C400001D1204688472046FFF71FFE09E00020DB
:104C50000146C4F89402204600F0E6F801E0204640
:104C60009047002070BDD0F8C002FDF762BA000086
:104C700010B504461C481D49C0F8E842C4F8C002FB
:104C80000160082141600221816000218161C161D0
:104C90000162FDF79DFB08B1FBF7FAFF0022D4F893
:104CA000C0021823114604F53074FCF7B1FF5823F5
:104CB000002280212068FCF7ABFFC0230022812165
:104CC0002068FCF7A5FF4FF48873002201212068BB
:104CD000FCF79EFF4FF48073002282212068FCF7CE
:104CE00097FF002010BD000008130020005C00406A
:104CF0000A0601F07F01D0F8C00201EB810100EB50
:104D0000C10002D590F82A00704790F86A017047F8
:104D100010B51C461346D0F8C0022246FDF712FA21
:104D2000BDE81040FFF7C8BE10B5D0F8C002FDF7CF
:104D300039FABDE81040FFF7BFBE70B50022044647
:104D400040231146FFF7E4FF40260125C4F86461C3
:104D50003346002280212046C4F85851FFF7D8FF7F
:104D60006662A56184F89C520020C4F894026060D9
:104D7000C4F8A402D4F8B80228B1D4F8B4020021CF
:104D8000426820469047002070BD90F89C1204298C
:104D900003D190F89D1280F89C120020704710B546
:104DA00090F89C12032904D1D0F8B412C96901B15A
:104DB0008847002010BD01740020704710B5D0F85E
:104DC000C002FDF7ACFBBDE81040FFF775BE70B543
:104DD000044600F52A70054600F04AF80120C4F8A0
:104DE0009402B4F8AE02C4F8980294F8A80210F045
:104DF0001F010AD001290DD0022910D000F0800136
:104E0000204600F011F8002070BD2946204600F031
:104E10009EF8F8E72946204600F0CAF9F3E729464C
:104E2000204600F01DF9EEE710B5D0F8C002FDF7FE
:104E3000D2F9BDE81040FFF73FBE10B5D0F8C00270
:104E4000FDF788FBBDE81040FFF736BE90F89C12D6
:104E500080F89D12042180F89C120020704710B544
:104E6000D0F8C002FDF7F0F9BDE81040FFF724BE0E
:104E70000A7802704A7842708A78CB7802EB032273
:104E800042800A794B7902EB032282808A79C979C0
:104E900002EB0121C18070470246002011B1C2F827
:104EA000B41270470220704710B5D0F8B422022423
:104EB0001AB11268904700B90024204610BD0000C6
:104EC00070B50E461E4D897804462970012931D8E7
:104ED00094F89C0202280BD003280FD031462046BC
:104EE000FFF7A1FC29782046BDE87040FFF784BC9D
:104EF000D9B10320616084F89C0209E071B1606857
:104F0000884212D0C1B22046FFF776FC2978616052
:104F10002046FFF7C9FF02280CD006E0022084F8E3
:104F20009C0220466160FFF767FC2046BDE87040A8
:104F3000FFF7ABBC31462046BDE87040FFF773BCBD
:104F40006001002010B5FFF778FF002010BD2DE9AB
:104F5000F0410A78002612F0600208D0202A01D021
:104F6000402A70D1D0F8B422926890476DE04B7817
:104F7000002201250A2B66D2DFE803F0405D655769
:104F8000650805652C29FFF7FFFC5EE0044688886C
:104F9000D8B9C888C8B94888802816D200F07F07D9
:104FA00094F89C02032810D084F89E72394620465B
:104FB000FFF704FF2046FFF768FC1FB1022084F8CA
:104FC0009C0242E084F89C523FE020463BE0FFF721
:104FD00077FF3AE0CB88012B35D190F89C32012B3A
:104FE00004D0022B02D0032B2DD104E082600122D9
:104FF00000F1080116E00122011D13E090F89C2247
:10500000012A03D0022A01D0032A1CD1CA88022A0D
:1050100019D1C560D0F8A41209B10321C1600222E0
:1050200000F10C01FFF724FC0FE0498801290CD1A5
:10503000C0F8A45211E090F89C32012B08D0022B4A
:1050400006D0032B04D0FFF7EEFB3046BDE8F0811D
:1050500049880129F9D1C0F8A422FFF716FCF4E72A
:105060002DE9F0410A46044610780027097910F02E
:1050700060030AD0202B01D0402B50D1D4F8B402C9
:1050800011468368204698478FE0C0F341100128FD
:1050900006D05078D0B301282AD003283FD107E0AA
:1050A000D4F8B402114683682046BDE8F0411847A1
:1050B00094F89C02022802D0032872D10AE071B34E
:1050C00080296ED02046FFF7AFFE80212046FFF7F3
:1050D000ABFE6AE0508838B931B1802904D0D0885D
:1050E00010B92046FFF7A0FE2046FFF7CEFB5CE09C
:1050F00094F89C020228E2D0032852D1508898BB31
:105100004806F1D02046FFF7F8FCEDE7FFE794F8FA
:105110009C020026022803D0032842D112E040E07E
:1051200009B180293DD1080601F07F0000EB800025
:1051300004EB800101D5143101E001F5AA710222CE
:105140000E602AE0080601F00F0000EB800004EB7F
:1051500080000AD5806920B301F07F0000EB800059
:1051600004EB800514350BE01FE0D0F85801C0B106
:1051700001F07F0000EB800004EB800505F5AA75C7
:1051800041B1802906D02046FFF7B2FD10B10120C1
:10519000286000E02E60022229462046FFF768FBC7
:1051A00003E011462046FFF73EFB3846BDE8F0819C
:1051B00070B5054608780C4610F0600003D0202832
:1051C00001D0402816D195F89C02012803D002286E
:1051D00001D003280ED1207901280BD8D5F8B402CC
:1051E000826828469047E188014306D12846FFF7A8
:1051F0004CFB02E02846FFF716FB002070BD70470D
:1052000000487047E81000202DE9F0470C78002690
:1052100030F8243048F68F121340CA78002A7DD027
:10522000012A7CD0022A02D0032A7FD0012648F22C
:105230008002134320F824300D7830F8254048F6DA
:105240008F731C402C43144320F825400D7B48F2FB
:10525000C00C48F6BF744CF280074BF68F79EDB363
:1052600091F80080C24630F8285048F280181D405E
:1052700045EA080520F82A50B0F8505091F800800F
:10528000054405EB0815B1F8088028F00108A5F8D9
:105290000084B0F8505091F80080054405EB0815E3
:1052A000B1F80A8028F00108A5F808844D78002D8F
:1052B0000D7830F825804FEA48487DD0B8F1000FCE
:1052C00007DA30F8258008EA030848EA070820F8DA
:1052D00025800F7830F827506D0600E02CE006D5C9
:1052E00030F827501D4045EA0C0520F82750CB78B0
:1052F0000D78012B30F8253003EA040301D083F048
:105300002003134320F825300B7830F8231001EAEE
:105310000901114320F82310304602E003E008E0C1
:1053200004E0BDE8F08743F4007380E743F4C06312
:105330007DE743F480637AE74D782DB3B0F85050A1
:105340000F78054405EB0715CF8827F00107A5F86E
:1053500000740F7830F827506D0606D530F82750C6
:105360001D4045EA0C0520F82750CB78012B06D0CC
:105370000B7830F82310214081F02001C9E70B7829
:1053800030F823102140C4E7B0F850400D780444B1
:1053900004EB0514CD8825F00105A4F80854B0F8F5
:1053A00050400D78044404EB05140D6904F20C44DC
:1053B00075B13E2D14D800E030E04FEA550CED07F2
:1053C00001D00CF1010C4FF6FF7505EA8C2511E0B8
:1053D000258825F4F8452580258845F4004509E011
:1053E0004FEA551CED0601D1ACF1010C4FF400451C
:1053F00045EA8C2525800D7830F82540640405D5D4
:1054000030F825401C403C4320F825400B7830F80C
:10541000231001EA090181F440517AE7B8F1000F45
:1054200007DA30F8258008EA030848EA070820F878
:1054300025800F7830F827506D0606D530F82750B4
:105440001D4045EA0C0520F827500D7830F825302E
:1054500003EA090383F44053134320F825308EE711
:10546000002070472DE9F04391F80C804F780A78BE
:1054700048F6BF7C4BF68F7948F2800348F2C005AE
:105480004CF2800648F68F74B8F1000F28D0002F38
:1054900030F822704FEA474748D0002F05DA30F83D
:1054A00022702740374320F822700A7830F82270A3
:1054B0007F0605D530F8227027402F4320F8227050
:1054C0000D7830F825202240324320F825200C7832
:1054D00030F8242002EA0C021A4320F824201AE0B3
:1054E0007FB130F82260760605D530F8226026407C
:1054F0002E4320F822600A7830F8221001EA0C01CD
:105500000EE030F822506D0405D530F822502540C9
:10551000354320F822500A7830F8221001EA0901B8
:10552000194320F822100020BDE8F083002F05DA8F
:1055300030F822702740374320F822700A7830F87C
:105540002260760605D530F8226026402E4320F8EA
:1055500022600E7830F8262022402A4320F82620A8
:105560000C7830F8242002EA09021A4320F824209B
:10557000C1E70020704700207047012120F8401F3C
:1055800000210180818001820846704730F8401F69
:1055900021F43F410180002070470020704730B562
:1055A0000A7BB2BB4A7848F68F7548F28004C2B1D4
:1055B0000B7830F82320520607D530F823202A40F4
:1055C00048F2C0052A4320F82320CA78012A20D0B7
:1055D0000A7830F8221048F6BF73194081F0200194
:1055E00014E00A7830F822305B0407D530F8223016
:1055F0002B404CF280052B4320F822300A7830F8FB
:1056000022104BF68F73194081F44051214320F84A
:105610002210002030BD10B54A780978002A48F2DF
:10562000800330F8212005D048F6BF74224082F074
:10563000100204E04BF68F74224082F480521A4329
:1056400020F82120002010BD2DE9F0470E464B78B0
:10565000097B04464FF0000948F68F7248F2800A31
:105660004FF6FF774FF40048012B09D000296ED088
:10567000F07802286CD001286BD00120BDE8F087BB
:10568000B5693069854200D90546C9B1F17848F25B
:105690008013022923D0317834F8210010401843B8
:1056A00024F82100306A401B3062307834F8201032
:1056B000490671787ED500297DD001297CD03FE153
:1056C000ABB2F2882046716900F0F6FAB4F85000E7
:1056D0003178204400EB0110A0F80454EAE0316A6C
:1056E00081426AD9317834F821001040184324F8F7
:1056F0002100306A401B3062307834F820104906AF
:1057000071786CD511B1012924D02AE0B4F8501079
:10571000214401EB001000F20C404DB13E2D0FD89A
:105720006908EA0700D0491C07EA8121018018E0D6
:10573000018821F4F8410180018841F40041F5E736
:105740006909EA0600D1491E48EA8121EEE79CE199
:10575000BCE126E2B4F85020111901EB0010A0F8CA
:105760000C547289ABB22046716900F0A5FA7069D9
:10577000284470613169306A884202D9401B306226
:1057800002E00546C6F82090707800287CD1B4F875
:1057900050003178204400EB011000F204406DB15C
:1057A0003E2D13D86908EA0700D0491C07EA812179
:1057B000018012E001E19BE0BBE084E0018821F47C
:1057C000F8410180018841F40041F1E76909EA06E6
:1057D00000D1491E48EA8121EAE7328965E011B12A
:1057E000012921D027E0B4F85010214401EB00102A
:1057F00000F204404DB13E2D0FD86908EA0700D0F1
:10580000491C07EA8121018015E0018821F4F84153
:105810000180018841F40041F5E76909EA0600D1F9
:10582000491E48EA8121EEE7B4F85010214401EB0B
:105830000010A0F804543289ABB22046716900F020
:105840003BFA7069284470613169306A884202D934
:10585000401B306202E00546C6F8209070780028B0
:105860007ED1B4F850003178204400EB011000F2F2
:105870000C4055B13E2D10D86908EA0700D0491CEC
:1058800007EA812101800FE072E0018821F4F841EC
:105890000180018841F40041F4E76909EA0600D17A
:1058A000491E48EA8121EDE77289ABB22046716951
:1058B00000F002FA317834F8210048F6BF72104047
:1058C00080F03000C0E1327834F8220048F68F636F
:1058D000184040EA0A0024F82200B4F85000327858
:1058E000204400EB02108BB2A0F804343289DDE7CB
:1058F000B4F85010214401EB001000F20C404DB1FF
:105900003E2D0FD86908EA0700D0491C07EA81211B
:10591000018015E0018821F4F8410180018841F4FB
:105920000041F5E76909EA0600D1491E48EA8121EC
:10593000EEE7B4F85020111901EB0010A0F80C5458
:105940007289ABB22046716900F0B6F970692844DB
:1059500070613169306A884203D9401B306203E0CC
:105960006EE00546C6F82090002DA3D0707858B19F
:1059700001287FF41EAFB4F850003178204400EBCA
:105980000110A0F8045428E7B4F8500031782044FE
:1059900000EB011101F204413E2D06D86808EA0728
:1059A00000D0401C07EA802005E06809EA0600D123
:1059B000401E48EA802008800FE711B1012921D05C
:1059C00027E0B4F85010214401EB001000F204402D
:1059D0004DB13E2D0FD86908EA0700D0491C07EAEF
:1059E0008121018015E0018821F4F84101800188BE
:1059F00041F40041F5E76909EA0600D1491E48EA89
:105A00008121EEE7B4F85010214401EB0010A0F81A
:105A100004543289ABB22046716900F04DF97069C7
:105A2000284470613169306A884202D9401B306273
:105A300002E00546C6F82090002D96D0707858B147
:105A400001287FF420AFB4F850100819317800EB2A
:105A50000110A0F80C5427E7B4F850003178204426
:105A600000EB011101F20C413E2D06D86808EA074F
:105A700000D0401C07EA802005E06809EA0600D152
:105A8000401E48EA802008800EE7B16930698142F3
:105A900002D9091AB161B5E00846C6F81890B1E01C
:105AA000088820F4F8400880088840F400400BE0A3
:105AB0003E2875D84208C00700D0521C07EA822051
:105AC00002E000BF48EA82200880B5E093B9B4F84C
:105AD00050003178204400EB0110316900F204409D
